{
  "contractName": "CallableEvents",
  "abi": [
    {
      "inputs": [],
      "payable": false,
      "stateMutability": "nonpayable",
      "type": "constructor"
    },
    {
      "payable": true,
      "stateMutability": "payable",
      "type": "fallback"
    },
    {
      "anonymous": false,
      "inputs": [
        {
          "indexed": true,
          "name": "from",
          "type": "address"
        }
      ],
      "name": "CalledTrigger1",
      "type": "event"
    },
    {
      "anonymous": false,
      "inputs": [
        {
          "indexed": true,
          "name": "from",
          "type": "address"
        },
        {
          "indexed": false,
          "name": "value",
          "type": "uint256"
        }
      ],
      "name": "CalledTrigger2",
      "type": "event"
    },
    {
      "anonymous": false,
      "inputs": [
        {
          "indexed": true,
          "name": "from",
          "type": "address"
        },
        {
          "indexed": false,
          "name": "val1",
          "type": "uint256"
        },
        {
          "indexed": false,
          "name": "val2",
          "type": "uint256"
        }
      ],
      "name": "CalledTrigger3",
      "type": "event"
    },
    {
      "anonymous": false,
      "inputs": [
        {
          "indexed": false,
          "name": "val1",
          "type": "uint256"
        },
        {
          "indexed": false,
          "name": "val2",
          "type": "uint256"
        }
      ],
      "name": "CalledTrigger4",
      "type": "event"
    },
    {
      "anonymous": false,
      "inputs": [
        {
          "indexed": true,
          "name": "val1",
          "type": "uint256"
        },
        {
          "indexed": true,
          "name": "val2",
          "type": "uint256"
        }
      ],
      "name": "CalledTrigger5",
      "type": "event"
    },
    {
      "anonymous": false,
      "inputs": [
        {
          "indexed": false,
          "name": "from",
          "type": "address"
        },
        {
          "indexed": false,
          "name": "timestamp",
          "type": "uint256"
        },
        {
          "indexed": false,
          "name": "blockNumber",
          "type": "uint256"
        }
      ],
      "name": "CalledTrigger6",
      "type": "event"
    },
    {
      "anonymous": false,
      "inputs": [
        {
          "indexed": true,
          "name": "from",
          "type": "address"
        },
        {
          "indexed": false,
          "name": "value",
          "type": "uint256"
        }
      ],
      "name": "MoneyReceived",
      "type": "event"
    },
    {
      "constant": true,
      "inputs": [],
      "name": "contractExists",
      "outputs": [
        {
          "name": "result",
          "type": "bool"
        }
      ],
      "payable": false,
      "stateMutability": "pure",
      "type": "function"
    },
    {
      "constant": false,
      "inputs": [],
      "name": "triggerEvent1",
      "outputs": [],
      "payable": false,
      "stateMutability": "nonpayable",
      "type": "function"
    },
    {
      "constant": false,
      "inputs": [],
      "name": "triggerEvent2",
      "outputs": [],
      "payable": false,
      "stateMutability": "nonpayable",
      "type": "function"
    },
    {
      "constant": false,
      "inputs": [],
      "name": "triggerEvent3",
      "outputs": [],
      "payable": false,
      "stateMutability": "nonpayable",
      "type": "function"
    },
    {
      "constant": false,
      "inputs": [],
      "name": "triggerEvent4",
      "outputs": [],
      "payable": false,
      "stateMutability": "nonpayable",
      "type": "function"
    },
    {
      "constant": false,
      "inputs": [],
      "name": "triggerEvent5",
      "outputs": [],
      "payable": false,
      "stateMutability": "nonpayable",
      "type": "function"
    },
    {
      "constant": false,
      "inputs": [],
      "name": "triggerEvent6",
      "outputs": [],
      "payable": false,
      "stateMutability": "nonpayable",
      "type": "function"
    },
    {
      "constant": false,
      "inputs": [],
      "name": "adminDeleteRegistry",
      "outputs": [],
      "payable": false,
      "stateMutability": "nonpayable",
      "type": "function"
    }
  ],
  "bytecode": "0x608060405234801561001057600080fd5b50336000806101000a81548173ffffffffffffffffffffffffffffffffffffffff021916908373ffffffffffffffffffffffffffffffffffffffff160217905550610476806100606000396000f30060806040526004361061008e576000357c0100000000000000000000000000000000000000000000000000000000900463ffffffff16806306ae9483146100de5780633af41dc21461010d57806344a873db146101245780634ac82f301461013b578063876652af14610152578063985feed8146101695780639a7f111914610180578063e6146ef214610197575b3373ffffffffffffffffffffffffffffffffffffffff167f27b15ed4cf832749ed39f33a64e4707ed60a761485e41ffec7343ecaddc0c02a346040518082815260200191505060405180910390a2005b3480156100ea57600080fd5b506100f36101ae565b604051808215151515815260200191505060405180910390f35b34801561011957600080fd5b506101226101b7565b005b34801561013057600080fd5b50610139610248565b005b34801561014757600080fd5b5061015061028d565b005b34801561015e57600080fd5b506101676102ed565b005b34801561017557600080fd5b5061017e610336565b005b34801561018c57600080fd5b5061019561036e565b005b3480156101a357600080fd5b506101ac6103c6565b005b60006001905090565b6000809054906101000a900473ffffffffffffffffffffffffffffffffffffffff1673ffffffffffffffffffffffffffffffffffffffff163373ffffffffffffffffffffffffffffffffffffffff161415610246576000809054906101000a900473ffffffffffffffffffffffffffffffffffffffff1673ffffffffffffffffffffffffffffffffffffffff16ff5b565b3373ffffffffffffffffffffffffffffffffffffffff167ff1bcc9b38e5032bb337b23b2b8aeec7c9892fdcea5957297e659dbe2c99e16e360405160405180910390a2565b600061270f90503373ffffffffffffffffffffffffffffffffffffffff167fd320a9ab3e25a9129a0f94cd03a17b8ee0705e6d135041c069e7515e7788a3258283604051808381526020018281526020019250505060405180910390a250565b600061270f90507fe8dd66fef5701b72851ca2c0bc6859fc1b15968ba8be5c4075c2330231b38ea38182604051808381526020018281526020019250505060405180910390a150565b600061270f905080817f1713a546df5ad374a19e3792551f4bd595019648e5d4f360e86d530f8ee2fbce60405160405180910390a350565b600061270f90503373ffffffffffffffffffffffffffffffffffffffff167fea677e60e8b8b74e6ac7fc18830a7fe4300f1d020f0229ddc728dab0942a6cca826040518082815260200191505060405180910390a250565b7fd574453bc7514229ed2aa4f0e20aadfa6df86e63b21bf7e78aae08f008740c48336103f0610442565b43604051808473ffffffffffffffffffffffffffffffffffffffff1673ffffffffffffffffffffffffffffffffffffffff168152602001838152602001828152602001935050505060405180910390a1565b6000429050905600a165627a7a72305820b74d251e4fe9930679b015aa820cd61dc5bb5c7fc13c08a0dd8c84f4055eba620029",
  "source": "pragma solidity ^0.4.24;\n\ncontract CallableEvents {\n\n    address _owner;\n\n    // Event allowing listening to newly signed Accounts (?)\n    event CalledTrigger1 (address indexed from);\n    event CalledTrigger2 (address indexed from, uint256 value);\n    event CalledTrigger3 (address indexed from, uint256 val1, uint256 val2);\n    event CalledTrigger4 (uint256 val1, uint256 val2);\n    event CalledTrigger5 (uint256 indexed val1, uint256 indexed val2);\n    event CalledTrigger6 (address  from, uint256 timestamp, uint256 blockNumber);\n    event MoneyReceived (address indexed from, uint256 value);\n\n    function contractExists () public pure returns (bool result){\n        return true;\n    }\n\n    // Administrative below\n    constructor() public {\n      _owner = msg.sender;\n    }\n\n    function triggerEvent1() public {\n        emit CalledTrigger1(msg.sender);\n    }\n\n    function triggerEvent2() public {\n       uint256 myVal = 9999;\n       emit CalledTrigger2(msg.sender, myVal);\n    }\n\n    function triggerEvent3() public {\n       uint256 myVal = 9999;\n       emit CalledTrigger3(msg.sender, myVal, myVal);\n    }\n\n    function triggerEvent4() public {\n       uint256 myVal = 9999;\n       emit CalledTrigger4(myVal, myVal);\n    }\n\n    function triggerEvent5() public {\n       uint256 myVal = 9999;\n       emit CalledTrigger5(myVal, myVal);\n    }\n\n    // Timestamp could be modified by miner.\n    // For time critical events you should only rely on block number.\n    // See: https://ethereum.stackexchange.com/a/9859/852\n    function triggerEvent6() public {\n       emit CalledTrigger6(msg.sender, unixTime(), block.number);\n    }\n\n    function () public payable {\n        emit MoneyReceived(msg.sender, msg.value);\n    }\n\n    /**\n     * Returns Unix Timestamp\n     * E.g: https://www.unixtimestamp.com\n     */\n    function unixTime() internal view returns (uint256){\n        return now;\n    }\n\n\n//    function getTheMoney() public {\n//        if (msg.sender == _owner) {\n//          _owner.transfer(address(this).balance);\n//        }\n//    }\n\n    function adminDeleteRegistry() public {\n        if (msg.sender == _owner) {\n          selfdestruct(_owner);\n        }\n    }\n\n}\n",
  "sourcePath": "/Users/tho/htdocs/ConsenSys/DrupalEthereum/FeatureWeb3Provider/drupal/vendor/digitaldonkey/ethereum-php/tests/TestEthClient/test_contracts/contracts/CallableEvents.sol",
  "compiler": {
    "name": "solc",
    "version": "0.4.24+commit.e67f0147.Emscripten.clang"
  },
  "schemaVersion": "2.0.1",
  "updatedAt": "2018-09-18T17:31:10.325Z"
}