{
  "contractName": "MultiReturner",
  "abi": [
    {
      "constant": true,
      "inputs": [],
      "name": "getBoolean",
      "outputs": [
        {
          "name": "",
          "type": "bool"
        }
      ],
      "payable": false,
      "stateMutability": "pure",
      "type": "function"
    },
    {
      "constant": true,
      "inputs": [],
      "name": "getInteger",
      "outputs": [
        {
          "name": "",
          "type": "int256"
        }
      ],
      "payable": false,
      "stateMutability": "pure",
      "type": "function"
    },
    {
      "constant": true,
      "inputs": [],
      "name": "getBytes1",
      "outputs": [
        {
          "name": "",
          "type": "bytes1"
        }
      ],
      "payable": false,
      "stateMutability": "pure",
      "type": "function"
    },
    {
      "constant": true,
      "inputs": [],
      "name": "getBytes8",
      "outputs": [
        {
          "name": "",
          "type": "bytes8"
        }
      ],
      "payable": false,
      "stateMutability": "pure",
      "type": "function"
    },
    {
      "constant": true,
      "inputs": [],
      "name": "getBytes16",
      "outputs": [
        {
          "name": "",
          "type": "bytes16"
        }
      ],
      "payable": false,
      "stateMutability": "pure",
      "type": "function"
    },
    {
      "constant": true,
      "inputs": [],
      "name": "getBytes32",
      "outputs": [
        {
          "name": "",
          "type": "bytes32"
        }
      ],
      "payable": false,
      "stateMutability": "pure",
      "type": "function"
    },
    {
      "constant": true,
      "inputs": [],
      "name": "getBytes",
      "outputs": [
        {
          "name": "",
          "type": "bytes"
        }
      ],
      "payable": false,
      "stateMutability": "pure",
      "type": "function"
    },
    {
      "constant": true,
      "inputs": [],
      "name": "getBytesLong",
      "outputs": [
        {
          "name": "",
          "type": "bytes"
        }
      ],
      "payable": false,
      "stateMutability": "pure",
      "type": "function"
    },
    {
      "constant": true,
      "inputs": [],
      "name": "getTwoBytes32",
      "outputs": [
        {
          "name": "",
          "type": "bytes32"
        },
        {
          "name": "",
          "type": "bytes32"
        }
      ],
      "payable": false,
      "stateMutability": "pure",
      "type": "function"
    },
    {
      "constant": true,
      "inputs": [],
      "name": "getDynamicDataMixedTwo",
      "outputs": [
        {
          "name": "",
          "type": "bytes32"
        },
        {
          "name": "",
          "type": "bytes"
        }
      ],
      "payable": false,
      "stateMutability": "pure",
      "type": "function"
    },
    {
      "constant": true,
      "inputs": [],
      "name": "getDynamicData",
      "outputs": [
        {
          "name": "",
          "type": "bytes"
        },
        {
          "name": "",
          "type": "bytes"
        }
      ],
      "payable": false,
      "stateMutability": "pure",
      "type": "function"
    },
    {
      "constant": true,
      "inputs": [],
      "name": "getDynamicDataMixedOne",
      "outputs": [
        {
          "name": "",
          "type": "bytes"
        },
        {
          "name": "",
          "type": "bytes32"
        }
      ],
      "payable": false,
      "stateMutability": "pure",
      "type": "function"
    },
    {
      "constant": true,
      "inputs": [],
      "name": "getDynamicTripple",
      "outputs": [
        {
          "name": "",
          "type": "bytes"
        },
        {
          "name": "",
          "type": "bytes"
        },
        {
          "name": "",
          "type": "bytes"
        }
      ],
      "payable": false,
      "stateMutability": "pure",
      "type": "function"
    },
    {
      "constant": true,
      "inputs": [],
      "name": "getLotsOfBytes",
      "outputs": [
        {
          "name": "",
          "type": "bytes"
        }
      ],
      "payable": false,
      "stateMutability": "pure",
      "type": "function"
    },
    {
      "constant": true,
      "inputs": [],
      "name": "getListOfInteger",
      "outputs": [
        {
          "name": "",
          "type": "uint256[10]"
        }
      ],
      "payable": false,
      "stateMutability": "pure",
      "type": "function"
    }
  ],
  "bytecode": "0x608060405234801561001057600080fd5b50610dd7806100206000396000f3006080604052600436106100db576000357c0100000000000000000000000000000000000000000000000000000000900463ffffffff1680630bcd3b33146100e0578063130aeaa9146101705780631f903037146102d857806325f35c361461030b5780632d1be94d14610407578063478529c71461043657806379913699146104895780638b84925b146104da578063a15e05fd14610505578063d073266814610547578063db14c800146105e6578063ded516d214610647578063f0c7ae87146106b6578063f1d0876a14610746578063f5c2e88a146107e5575b600080fd5b3480156100ec57600080fd5b506100f5610875565b6040518080602001828103825283818151815260200191508051906020019080838360005b8381101561013557808201518184015260208101905061011a565b50505050905090810190601f1680156101625780820380516001836020036101000a031916815260200191505b509250505060405180910390f35b34801561017c57600080fd5b506101856108b7565b60405180806020018060200180602001848103845287818151815260200191508051906020019080838360005b838110156101cd5780820151818401526020810190506101b2565b50505050905090810190601f1680156101fa5780820380516001836020036101000a031916815260200191505b50848103835286818151815260200191508051906020019080838360005b83811015610233578082015181840152602081019050610218565b50505050905090810190601f1680156102605780820380516001836020036101000a031916815260200191505b50848103825285818151815260200191508051906020019080838360005b8381101561029957808201518184015260208101905061027e565b50505050905090810190601f1680156102c65780820380516001836020036101000a031916815260200191505b50965050505050505060405180910390f35b3480156102e457600080fd5b506102ed610979565b60405180826000191660001916815260200191505060405180910390f35b34801561031757600080fd5b506103206109a6565b604051808060200180602001838103835285818151815260200191508051906020019080838360005b83811015610364578082015181840152602081019050610349565b50505050905090810190601f1680156103915780820380516001836020036101000a031916815260200191505b50838103825284818151815260200191508051906020019080838360005b838110156103ca5780820151818401526020810190506103af565b50505050905090810190601f1680156103f75780820380516001836020036101000a031916815260200191505b5094505050505060405180910390f35b34801561041357600080fd5b5061041c610a28565b604051808215151515815260200191505060405180910390f35b34801561044257600080fd5b5061044b610a36565b6040518082600a60200280838360005b8381101561047657808201518184015260208101905061045b565b5050505090500191505060405180910390f35b34801561049557600080fd5b5061049e610a8e565b60405180826fffffffffffffffffffffffffffffffff19166fffffffffffffffffffffffffffffffff1916815260200191505060405180910390f35b3480156104e657600080fd5b506104ef610abb565b6040518082815260200191505060405180910390f35b34801561051157600080fd5b5061051a610ac9565b60405180836000191660001916815260200182600019166000191681526020019250505060405180910390f35b34801561055357600080fd5b5061055c610b21565b60405180806020018360001916600019168152602001828103825284818151815260200191508051906020019080838360005b838110156105aa57808201518184015260208101905061058f565b50505050905090810190601f1680156105d75780820380516001836020036101000a031916815260200191505b50935050505060405180910390f35b3480156105f257600080fd5b506105fb610b90565b604051808277ffffffffffffffffffffffffffffffffffffffffffffffff191677ffffffffffffffffffffffffffffffffffffffffffffffff1916815260200191505060405180910390f35b34801561065357600080fd5b5061065c610bbd565b60405180827effffffffffffffffffffffffffffffffffffffffffffffffffffffffffffff19167effffffffffffffffffffffffffffffffffffffffffffffffffffffffffffff1916815260200191505060405180910390f35b3480156106c257600080fd5b506106cb610bea565b6040518080602001828103825283818151815260200191508051906020019080838360005b8381101561070b5780820151818401526020810190506106f0565b50505050905090810190601f1680156107385780820380516001836020036101000a031916815260200191505b509250505060405180910390f35b34801561075257600080fd5b5061075b610c10565b60405180836000191660001916815260200180602001828103825283818151815260200191508051906020019080838360005b838110156107a957808201518184015260208101905061078e565b50505050905090810190601f1680156107d65780820380516001836020036101000a031916815260200191505b50935050505060405180910390f35b3480156107f157600080fd5b506107fa610c7f565b6040518080602001828103825283818151815260200191508051906020019080838360005b8381101561083a57808201518184015260208101905061081f565b50505050905090810190601f1680156108675780820380516001836020036101000a031916815260200191505b509250505060405180910390f35b6060806040805190810160405280600381526020017f616263000000000000000000000000000000000000000000000000000000000081525090508091505090565b6060806060806060806040805190810160405280600381526020017f616263000000000000000000000000000000000000000000000000000000000081525092506040805190810160405280600381526020017f646566000000000000000000000000000000000000000000000000000000000081525091506040805190810160405280600381526020017f67686900000000000000000000000000000000000000000000000000000000008152509050828282955095509550505050909192565b6000807f616263000000000000000000000000000000000000000000000000000000000090508091505090565b6060806060806040805190810160405280600381526020017f616263000000000000000000000000000000000000000000000000000000000081525091506040805190810160405280600381526020017f78797a0000000000000000000000000000000000000000000000000000000000815250905081819350935050509091565b600080600190508091505090565b610a3e610ce8565b610a46610ce8565b60008090505b600a8160ff161015610a86576001810160ff16828260ff16600a81101515610a7057fe5b6020020181815250508080600101915050610a4c565b819250505090565b6000807f616161616161616161616161616161610000000000000000000000000000000090508091505090565b600080606390508091505090565b6000806000807f616263000000000000000000000000000000000000000000000000000000000091507f78797a0000000000000000000000000000000000000000000000000000000000905081819350935050509091565b60606000606060006040805190810160405280600381526020017f616263000000000000000000000000000000000000000000000000000000000081525091507f78797a0000000000000000000000000000000000000000000000000000000000905081819350935050509091565b6000807f616161616161616100000000000000000000000000000000000000000000000090508091505090565b6000807f610000000000000000000000000000000000000000000000000000000000000090508091505090565b60608060c060405190810160405280609f8152602001610d0d609f913990508091505090565b60006060600060607f78797a000000000000000000000000000000000000000000000000000000000091506040805190810160405280600381526020017f6162630000000000000000000000000000000000000000000000000000000000815250905081819350935050509091565b606080606060405190810160405280603c81526020017f616263616263616263636162636162636162636361626361626361626363616281526020017f636162636162636361626361626361626363616263616263616263630000000081525090508091505090565b61014060405190810160405280600a906020820280388339808201915050905050905600fffffffffffffffffffffffffffffffffffffffffffffffffffffffffffffffffffffffffffffffffffffffffffffffffffffffffffffffffffffffffffffffffffffffffffffffffffffffffffffffffffffffffffffffffffffffffffffffffffffffffffffffffffffffffffffffffffffffffffffffffffffffffffffffffffffffffffffffffffffffffffffffffffffffffffffffffffffffffffff1a165627a7a72305820b99a31809d7e55008a38d70fc015a523cb11f79ad3f69b62268a8314b555de650029",
  "source": "pragma solidity ^0.4.24;\n\n//  See: https://ethereum.stackexchange.com/a/681/852\n\ncontract MultiReturner {\n\n    function getBoolean() public pure returns (bool) {\n        bool a = true;\n        return (a);\n    }\n\n    function getInteger() public pure returns (int) {\n        int a = 99;\n        return (a);\n    }\n\n    function getBytes1() public pure returns (bytes1) {\n        bytes1 a = \"\\x61\";\n        return (a);\n    }\n\n    function getBytes8() public pure returns (bytes8) {\n        bytes8 a = \"\\x61\\x61\\x61\\x61\\x61\\x61\\x61\\x61\";\n        return (a);\n    }\n\n    function getBytes16() public pure returns (bytes16) {\n        bytes16 a = \"\\x61\\x61\\x61\\x61\\x61\\x61\\x61\\x61\\x61\\x61\\x61\\x61\\x61\\x61\\x61\\x61\";\n        return (a);\n    }\n\n    function getBytes32() public pure returns (bytes32) {\n        bytes32 a = \"\\x61\\x62\\x63\";\n        return (a);\n    }\n\n    function getBytes() public pure returns (bytes) {\n        bytes memory a = \"\\x61\\x62\\x63\";\n        return (a);\n    }\n\n    function getBytesLong() public pure returns (bytes) {\n        // 60 bytes\n        bytes memory a = \"\\x61\\x62\\x63\\x61\\x62\\x63\\x61\\x62\\x63\\x63\\x61\\x62\\x63\\x61\\x62\\x63\\x61\\x62\\x63\\x63\\x61\\x62\\x63\\x61\\x62\\x63\\x61\\x62\\x63\\x63\\x61\\x62\\x63\\x61\\x62\\x63\\x61\\x62\\x63\\x63\\x61\\x62\\x63\\x61\\x62\\x63\\x61\\x62\\x63\\x63\\x61\\x62\\x63\\x61\\x62\\x63\\x61\\x62\\x63\\x63\";\n        return (a);\n    }\n\n    function getTwoBytes32() public pure returns (bytes32, bytes32) {\n        bytes32 a = \"\\x61\\x62\\x63\";\n        bytes32 b = \"\\x78\\x79\\x7a\";\n        return (a, b);\n    }\n\n    function getDynamicDataMixedTwo() public pure returns (bytes32, bytes) {\n        bytes32 a = \"\\x78\\x79\\x7a\";\n        bytes memory b = \"\\x61\\x62\\x63\";\n        return (a, b);\n    }\n\n    function getDynamicData() public pure returns (bytes, bytes) {\n        bytes memory a = \"\\x61\\x62\\x63\";\n        bytes memory b = \"\\x78\\x79\\x7a\";\n        return (a, b);\n    }\n\n    function getDynamicDataMixedOne() public pure returns (bytes, bytes32) {\n        bytes memory a = \"\\x61\\x62\\x63\";\n        bytes32 b = \"\\x78\\x79\\x7a\";\n        return (a, b);\n    }\n\n    function getDynamicTripple() public pure returns (bytes, bytes, bytes) {\n        bytes memory a = \"\\x61\\x62\\x63\";\n        bytes memory b = \"\\x64\\x65\\x66\";\n        bytes memory c = \"\\x67\\x68\\x69\";\n        return (a, b, c);\n    }\n\n    function getLotsOfBytes() public pure returns (bytes) {\n        bytes memory a = \"\\xff\\xff\\xff\\xff\\xff\\xff\\xff\\xff\\xff\\xff\\xff\\xff\\xff\\xff\\xff\\xff\\xff\\xff\\xff\\xff\\xff\\xff\\xff\\xff\\xff\\xff\\xff\\xff\\xff\\xff\\xff\\xff\\xff\\xff\\xff\\xff\\xff\\xff\\xff\\xff\\xff\\xff\\xff\\xff\\xff\\xff\\xff\\xff\\xff\\xff\\xff\\xff\\xff\\xff\\xff\\xff\\xff\\xff\\xff\\xff\\xff\\xff\\xff\\xff\\xff\\xff\\xff\\xff\\xff\\xff\\xff\\xff\\xff\\xff\\xff\\xff\\xff\\xff\\xff\\xff\\xff\\xff\\xff\\xff\\xff\\xff\\xff\\xff\\xff\\xff\\xff\\xff\\xff\\xff\\xff\\xff\\xff\\xff\\xff\\xff\\xff\\xff\\xff\\xff\\xff\\xff\\xff\\xff\\xff\\xff\\xff\\xff\\xff\\xff\\xff\\xff\\xff\\xff\\xff\\xff\\xff\\xff\\xff\\xff\\xff\\xff\\xff\\xff\\xff\\xff\\xff\\xff\\xff\\xff\\xff\\xff\\xff\\xff\\xff\\xff\\xff\\xff\\xff\\xff\\xff\\xff\\xff\\xff\\xff\\xff\\xff\\xff\\xff\\xff\\xff\\xff\\xff\\xff\\xf1\";\n        return a;\n    }\n\n    function getListOfInteger() public pure returns (uint[10]) {\n        uint[10] memory myArray;\n\n        uint8 x = 0;\n        while(x < myArray.length)\n        {\n            myArray[x] = x+1;\n            x++;\n        }\n        return myArray;\n    }\n}\n",
  "sourcePath": "/Users/tho/htdocs/ConsenSys/DrupalEthereum/FeatureWeb3Provider/drupal/vendor/digitaldonkey/ethereum-php/tests/TestEthClient/test_contracts/contracts/MultiReturner.sol",
  "compiler": {
    "name": "solc",
    "version": "0.4.24+commit.e67f0147.Emscripten.clang"
  },
  "schemaVersion": "2.0.1",
  "updatedAt": "2018-09-18T17:31:10.330Z"
}