{
  "contractName": "SmartContractTest",
  "abi": [
    {
      "constant": true,
      "inputs": [
        {
          "name": "a",
          "type": "uint256"
        }
      ],
      "name": "multiplyWithSeven",
      "outputs": [
        {
          "name": "",
          "type": "uint256"
        }
      ],
      "payable": false,
      "stateMutability": "pure",
      "type": "function"
    },
    {
      "constant": true,
      "inputs": [
        {
          "name": "a",
          "type": "uint256"
        }
      ],
      "name": "multiplyWithSevenUsingAlias",
      "outputs": [
        {
          "name": "",
          "type": "uint256"
        }
      ],
      "payable": false,
      "stateMutability": "pure",
      "type": "function"
    }
  ],
  "bytecode": "0x6060604052341561000f57600080fd5b60fc8061001d6000396000f3006060604052600436106049576000357c0100000000000000000000000000000000000000000000000000000000900463ffffffff1680632e4accca14604e5780639ac9243b146082575b600080fd5b3415605857600080fd5b606c600480803590602001909190505060b6565b6040518082815260200191505060405180910390f35b3415608c57600080fd5b60a0600480803590602001909190505060c3565b6040518082815260200191505060405180910390f35b6000600782029050919050565b60006007820290509190505600a165627a7a72305820a4fb81e69cc68d46246c0a9a448907d19571e8a7bd66ac46215473fe9c2b9ad50029",
  "source": "pragma solidity 0.4.19;\n\ncontract SmartContractTest {\n    function multiplyWithSeven (uint256 a) public pure returns(uint) {\n        return a * 7;\n    }\n\n    // uint, int: synonyms for uint256, int256 respectively (not to be used for computing the function selector).\n    function multiplyWithSevenUsingAlias (uint a) public pure returns(uint) {\n        return a * 7;\n    }\n}\n",
  "sourcePath": "/Users/tho/htdocs/ConsenSys/ethereum-php/tests/TestEthClient/test_contracts/contracts/SmartContractTest.sol",
  "compiler": {
    "name": "solc",
    "version": "0.4.19+commit.c4cbbb05.Emscripten.clang"
  },
  "schemaVersion": "1.0.1",
  "updatedAt": "2018-03-15T01:28:23.212Z"
}