{
  "contractName": "SmartContractBytesTest",
  "abi": [
    {
      "constant": true,
      "inputs": [
        {
          "name": "b",
          "type": "bytes"
        }
      ],
      "name": "bytesLength",
      "outputs": [
        {
          "name": "",
          "type": "uint256"
        }
      ],
      "payable": false,
      "stateMutability": "pure",
      "type": "function"
    },
    {
      "constant": true,
      "inputs": [
        {
          "name": "b",
          "type": "bytes32"
        }
      ],
      "name": "bytes32Length",
      "outputs": [
        {
          "name": "",
          "type": "uint256"
        }
      ],
      "payable": false,
      "stateMutability": "pure",
      "type": "function"
    },
    {
      "constant": true,
      "inputs": [
        {
          "name": "a",
          "type": "bytes"
        }
      ],
      "name": "bytesReturn",
      "outputs": [
        {
          "name": "",
          "type": "bytes"
        }
      ],
      "payable": false,
      "stateMutability": "pure",
      "type": "function"
    },
    {
      "constant": true,
      "inputs": [
        {
          "name": "b",
          "type": "string"
        }
      ],
      "name": "stringReturn",
      "outputs": [
        {
          "name": "",
          "type": "string"
        }
      ],
      "payable": false,
      "stateMutability": "pure",
      "type": "function"
    }
  ],
  "bytecode": "0x608060405234801561001057600080fd5b50610346806100206000396000f300608060405260043610610062576000357c0100000000000000000000000000000000000000000000000000000000900463ffffffff1680630f05e864146100675780631404db98146101495780638d23960a1461018e578063b3a72dd614610270575b600080fd5b34801561007357600080fd5b506100ce600480360381019080803590602001908201803590602001908080601f01602080910402602001604051908101604052809392919081815260200183838082843782019150505050505091929192905050506102ed565b6040518080602001828103825283818151815260200191508051906020019080838360005b8381101561010e5780820151818401526020810190506100f3565b50505050905090810190601f16801561013b5780820380516001836020036101000a031916815260200191505b509250505060405180910390f35b34801561015557600080fd5b5061017860048036038101908080356000191690602001909291905050506102f7565b6040518082815260200191505060405180910390f35b34801561019a57600080fd5b506101f5600480360381019080803590602001908201803590602001908080601f0160208091040260200160405190810160405280939291908181526020018383808284378201915050505050509192919290505050610305565b6040518080602001828103825283818151815260200191508051906020019080838360005b8381101561023557808201518184015260208101905061021a565b50505050905090810190601f1680156102625780820380516001836020036101000a031916815260200191505b509250505060405180910390f35b34801561027c57600080fd5b506102d7600480360381019080803590602001908201803590602001908080601f016020809104026020016040519081016040528093929190818152602001838380828437820191505050505050919291929050505061030f565b6040518082815260200191505060405180910390f35b6060819050919050565b6000602060ff169050919050565b6060819050919050565b6000815190509190505600a165627a7a72305820c425d20bf0156990a6b9edcf9509613bdecf688fa677ea68709a2ffd252dea720029",
  "source": "pragma solidity ^0.4.24;\n\ncontract SmartContractBytesTest {\n\n    function bytesLength(bytes b) public pure returns (uint) {\n        return b.length;\n    }\n\n    function bytes32Length(bytes32 b) public pure returns (uint) {\n        return b.length;\n    }\n\n    // There is no string length. This wouldn't compile in truffle.\n    //\n    // TypeError: Member \"length\" not found or not visible\n    //   after argument-dependent lookup in string memory.\n    //\n    // function b3(string b) public pure returns (uint) {\n    //        return b.length;\n    // }\n\n    function bytesReturn(bytes a) public pure returns (bytes) {\n         return a;\n     }\n\n     function stringReturn(string b) public pure returns (string) {\n         return b;\n     }\n}\n",
  "sourcePath": "/Users/tho/htdocs/ConsenSys/DrupalEthereum/FeatureWeb3Provider/drupal/vendor/digitaldonkey/ethereum-php/tests/TestEthClient/test_contracts/contracts/SmartContractBytesTest.sol",
  "compiler": {
    "name": "solc",
    "version": "0.4.24+commit.e67f0147.Emscripten.clang"
  },
  "schemaVersion": "2.0.1",
  "updatedAt": "2018-09-18T17:31:10.318Z"
}