{
  "contractName": "SmartContractBytesTest",
  "abi": [
    {
      "constant": true,
      "inputs": [
        {
          "name": "b",
          "type": "bytes"
        }
      ],
      "name": "b1",
      "outputs": [
        {
          "name": "",
          "type": "uint256"
        }
      ],
      "payable": false,
      "stateMutability": "pure",
      "type": "function"
    },
    {
      "constant": true,
      "inputs": [
        {
          "name": "b",
          "type": "bytes32"
        }
      ],
      "name": "b2",
      "outputs": [
        {
          "name": "",
          "type": "uint256"
        }
      ],
      "payable": false,
      "stateMutability": "pure",
      "type": "function"
    },
    {
      "constant": true,
      "inputs": [
        {
          "name": "b",
          "type": "string"
        }
      ],
      "name": "b3",
      "outputs": [
        {
          "name": "",
          "type": "string"
        }
      ],
      "payable": false,
      "stateMutability": "pure",
      "type": "function"
    }
  ],
  "bytecode": "0x6060604052341561000f57600080fd5b6102478061001e6000396000f300606060405260043610610057576000357c0100000000000000000000000000000000000000000000000000000000900463ffffffff168063437b86471461005c5780634fb4ca5514610132578063db61ff391461016d575b600080fd5b341561006757600080fd5b6100b7600480803590602001908201803590602001908080601f016020809104026020016040519081016040528093929190818152602001838380828437820191505050505050919050506101de565b6040518080602001828103825283818151815260200191508051906020019080838360005b838110156100f75780820151818401526020810190506100dc565b50505050905090810190601f1680156101245780820380516001836020036101000a031916815260200191505b509250505060405180910390f35b341561013d57600080fd5b6101576004808035600019169060200190919050506101ee565b6040518082815260200191505060405180910390f35b341561017857600080fd5b6101c8600480803590602001908201803590602001908080601f016020809104026020016040519081016040528093929190818152602001838380828437820191505050505050919050506101fc565b6040518082815260200191505060405180910390f35b6101e6610207565b819050919050565b6000602060ff169050919050565b600081519050919050565b6020604051908101604052806000815250905600a165627a7a7230582023ce0a9c62a989d3be30b77996b68f24f1757e1a33dd8bceeb24a8b776b4a0e80029",
  "source": "pragma solidity 0.4.19;\n\ncontract SmartContractBytesTest {\n\n    function b1(bytes b) public pure returns (uint) {\n        return b.length;\n    }\n    function b2(bytes32 b) public pure returns (uint) {\n        return b.length;\n    }\n\n    // There is no string length. This wouldn't compile in truffle.\n    //\n    // TypeError: Member \"length\" not found or not visible\n    //   after argument-dependent lookup in string memory.\n    //\n    // function b3(string b) public pure returns (uint) {\n    //        return b.length;\n    // }\n\n     function b3(string b) public pure returns (string) {\n         return b;\n     }\n}\n",
  "sourcePath": "/Users/tho/htdocs/ConsenSys/ethereum-php/tests/TestEthClient/test_contracts/contracts/SmartContractBytesTest.sol",
  "compiler": {
    "name": "solc",
    "version": "0.4.19+commit.c4cbbb05.Emscripten.clang"
  },
  "schemaVersion": "1.0.1",
  "updatedAt": "2018-03-19T19:24:05.862Z"
}