{
  "contractName": "SmartContractTest",
  "abi": [
    {
      "constant": true,
      "inputs": [
        {
          "name": "a",
          "type": "uint256"
        }
      ],
      "name": "multiplyWithSeven",
      "outputs": [
        {
          "name": "",
          "type": "uint256"
        }
      ],
      "payable": false,
      "stateMutability": "pure",
      "type": "function"
    },
    {
      "constant": true,
      "inputs": [
        {
          "name": "a",
          "type": "uint256"
        }
      ],
      "name": "multiplyWithSevenUsingAlias",
      "outputs": [
        {
          "name": "",
          "type": "uint256"
        }
      ],
      "payable": false,
      "stateMutability": "pure",
      "type": "function"
    }
  ],
  "bytecode": "0x608060405234801561001057600080fd5b50610110806100206000396000f3006080604052600436106049576000357c0100000000000000000000000000000000000000000000000000000000900463ffffffff1680632e4accca14604e5780639ac9243b14608c575b600080fd5b348015605957600080fd5b5060766004803603810190808035906020019092919050505060ca565b6040518082815260200191505060405180910390f35b348015609757600080fd5b5060b46004803603810190808035906020019092919050505060d7565b6040518082815260200191505060405180910390f35b6000600782029050919050565b60006007820290509190505600a165627a7a723058200796dbd07a85efd11bc223b9742aa91914425b1df7fb109d5fdde7097403aed50029",
  "source": "pragma solidity 0.4.24;\n\ncontract SmartContractTest {\n    function multiplyWithSeven (uint256 a) public pure returns(uint) {\n        return a * 7;\n    }\n\n    // uint, int: synonyms for uint256, int256 respectively (not to be used for computing the function selector).\n    function multiplyWithSevenUsingAlias (uint a) public pure returns(uint) {\n        return a * 7;\n    }\n}\n",
  "sourcePath": "/Users/tho/htdocs/ConsenSys/DrupalEthereum/FeatureWeb3Provider/drupal/vendor/digitaldonkey/ethereum-php/tests/TestEthClient/test_contracts/contracts/SmartContractTest.sol",
  "compiler": {
    "name": "solc",
    "version": "0.4.24+commit.e67f0147.Emscripten.clang"
  },
  "schemaVersion": "2.0.1",
  "updatedAt": "2018-09-18T17:31:10.316Z"
}