{
  "contractName": "SmartContractTest",
  "abi": [
    {
      "constant": true,
      "inputs": [
        {
          "name": "a",
          "type": "uint256"
        }
      ],
      "name": "multiplyWithSeven",
      "outputs": [
        {
          "name": "",
          "type": "uint256"
        }
      ],
      "payable": false,
      "stateMutability": "pure",
      "type": "function"
    }
  ],
  "bytecode": "0x6060604052341561000f57600080fd5b60b18061001d6000396000f300606060405260043610603f576000357c0100000000000000000000000000000000000000000000000000000000900463ffffffff1680632e4accca146044575b600080fd5b3415604e57600080fd5b606260048080359060200190919050506078565b6040518082815260200191505060405180910390f35b60006007820290509190505600a165627a7a723058206a051484cd135906ce5bdb2df5e92d74f0e1260d062397d7fba94d799151de6f0029",
  "source": "pragma solidity 0.4.19;\n\ncontract SmartContractTest {\n    function multiplyWithSeven (uint a) public pure returns(uint) {\n        return a * 7;\n    }\n}\n",
  "sourcePath": "/Users/tho/htdocs/ConsenSys/DrupalEthereum/FeatureWeb3Provider/drupal/vendor/digitaldonkey/ethereum-php/tests/EthTestContracts/test_contracts/contracts/SmartContractTest.sol",
  "compiler": {
    "name": "solc",
    "version": "0.4.19+commit.c4cbbb05.Emscripten.clang"
  },
  "schemaVersion": "1.0.1",
  "updatedAt": "2018-03-06T19:19:51.874Z"
}